{
  "_format": "hh-sol-artifact-1",
  "contractName": "Holdings",
  "sourceName": "contracts/Holdings.sol",
  "abi": [
    {
      "inputs": [
        {
          "internalType": "contract IERC20",
          "name": "_token",
          "type": "address"
        },
        {
          "internalType": "uint256",
          "name": "_stakingTaxRate",
          "type": "uint256"
        },
        {
          "internalType": "uint256",
          "name": "_registrationTax",
          "type": "uint256"
        },
        {
          "internalType": "uint256",
          "name": "_minimumStakeValue",
          "type": "uint256"
        }
      ],
      "stateMutability": "nonpayable",
      "type": "constructor"
    },
    {
      "anonymous": false,
      "inputs": [
        {
          "indexed": true,
          "internalType": "address",
          "name": "previousOwner",
          "type": "address"
        },
        {
          "indexed": true,
          "internalType": "address",
          "name": "newOwner",
          "type": "address"
        }
      ],
      "name": "OwnershipTransferred",
      "type": "event"
    },
    {
      "inputs": [],
      "name": "BUSD",
      "outputs": [
        {
          "internalType": "contract IERC20",
          "name": "",
          "type": "address"
        }
      ],
      "stateMutability": "view",
      "type": "function"
    },
    {
      "inputs": [],
      "name": "active",
      "outputs": [
        {
          "internalType": "bool",
          "name": "",
          "type": "bool"
        }
      ],
      "stateMutability": "view",
      "type": "function"
    },
    {
      "inputs": [
        {
          "internalType": "address",
          "name": "_stakeholder",
          "type": "address"
        }
      ],
      "name": "calculateEarnings",
      "outputs": [
        {
          "internalType": "uint256",
          "name": "",
          "type": "uint256"
        }
      ],
      "stateMutability": "view",
      "type": "function"
    },
    {
      "inputs": [],
      "name": "dailyROI",
      "outputs": [
        {
          "internalType": "uint256",
          "name": "",
          "type": "uint256"
        }
      ],
      "stateMutability": "view",
      "type": "function"
    },
    {
      "inputs": [],
      "name": "minimumStakeValue",
      "outputs": [
        {
          "internalType": "uint256",
          "name": "",
          "type": "uint256"
        }
      ],
      "stateMutability": "view",
      "type": "function"
    },
    {
      "inputs": [],
      "name": "owner",
      "outputs": [
        {
          "internalType": "address",
          "name": "",
          "type": "address"
        }
      ],
      "stateMutability": "view",
      "type": "function"
    },
    {
      "inputs": [
        {
          "internalType": "address",
          "name": "",
          "type": "address"
        }
      ],
      "name": "referralCount",
      "outputs": [
        {
          "internalType": "uint256",
          "name": "",
          "type": "uint256"
        }
      ],
      "stateMutability": "view",
      "type": "function"
    },
    {
      "inputs": [
        {
          "internalType": "address",
          "name": "",
          "type": "address"
        }
      ],
      "name": "referralRewards",
      "outputs": [
        {
          "internalType": "uint256",
          "name": "",
          "type": "uint256"
        }
      ],
      "stateMutability": "view",
      "type": "function"
    },
    {
      "inputs": [],
      "name": "referralTaxRate",
      "outputs": [
        {
          "internalType": "uint256",
          "name": "",
          "type": "uint256"
        }
      ],
      "stateMutability": "view",
      "type": "function"
    },
    {
      "inputs": [
        {
          "internalType": "uint256",
          "name": "_amount",
          "type": "uint256"
        },
        {
          "internalType": "address",
          "name": "_referrer",
          "type": "address"
        }
      ],
      "name": "registerAndStake",
      "outputs": [],
      "stateMutability": "nonpayable",
      "type": "function"
    },
    {
      "inputs": [
        {
          "internalType": "address",
          "name": "",
          "type": "address"
        }
      ],
      "name": "registered",
      "outputs": [
        {
          "internalType": "bool",
          "name": "",
          "type": "bool"
        }
      ],
      "stateMutability": "view",
      "type": "function"
    },
    {
      "inputs": [],
      "name": "registrationTax",
      "outputs": [
        {
          "internalType": "uint256",
          "name": "",
          "type": "uint256"
        }
      ],
      "stateMutability": "view",
      "type": "function"
    },
    {
      "inputs": [],
      "name": "renounceOwnership",
      "outputs": [],
      "stateMutability": "nonpayable",
      "type": "function"
    },
    {
      "inputs": [
        {
          "internalType": "uint256",
          "name": "_amount",
          "type": "uint256"
        }
      ],
      "name": "stake",
      "outputs": [],
      "stateMutability": "nonpayable",
      "type": "function"
    },
    {
      "inputs": [
        {
          "internalType": "address",
          "name": "",
          "type": "address"
        }
      ],
      "name": "stakeRewards",
      "outputs": [
        {
          "internalType": "uint256",
          "name": "",
          "type": "uint256"
        }
      ],
      "stateMutability": "view",
      "type": "function"
    },
    {
      "inputs": [
        {
          "internalType": "address",
          "name": "",
          "type": "address"
        }
      ],
      "name": "stakes",
      "outputs": [
        {
          "internalType": "uint256",
          "name": "",
          "type": "uint256"
        }
      ],
      "stateMutability": "view",
      "type": "function"
    },
    {
      "inputs": [],
      "name": "stakingTaxRate",
      "outputs": [
        {
          "internalType": "uint256",
          "name": "",
          "type": "uint256"
        }
      ],
      "stateMutability": "view",
      "type": "function"
    },
    {
      "inputs": [],
      "name": "totalStaked",
      "outputs": [
        {
          "internalType": "uint256",
          "name": "",
          "type": "uint256"
        }
      ],
      "stateMutability": "view",
      "type": "function"
    },
    {
      "inputs": [
        {
          "internalType": "address",
          "name": "newOwner",
          "type": "address"
        }
      ],
      "name": "transferOwnership",
      "outputs": [],
      "stateMutability": "nonpayable",
      "type": "function"
    },
    {
      "inputs": [
        {
          "internalType": "uint256",
          "name": "_amount",
          "type": "uint256"
        }
      ],
      "name": "unstake",
      "outputs": [],
      "stateMutability": "nonpayable",
      "type": "function"
    },
    {
      "inputs": [],
      "name": "withdrawEarnings",
      "outputs": [
        {
          "internalType": "bool",
          "name": "",
          "type": "bool"
        }
      ],
      "stateMutability": "nonpayable",
      "type": "function"
    }
  ],
  "bytecode": "0x60806040526001600560006101000a81548160ff0219169083151502179055503480156200002c57600080fd5b5060405162002b4838038062002b488339818101604052810190620000529190620001cc565b6200007262000066620000d260201b60201c565b620000da60201b60201c565b83600160006101000a81548173ffffffffffffffffffffffffffffffffffffffff021916908373ffffffffffffffffffffffffffffffffffffffff16021790555082600681905550816007819055508060048190555050505050620002be565b600033905090565b60008060009054906101000a900473ffffffffffffffffffffffffffffffffffffffff169050816000806101000a81548173ffffffffffffffffffffffffffffffffffffffff021916908373ffffffffffffffffffffffffffffffffffffffff1602179055508173ffffffffffffffffffffffffffffffffffffffff168173ffffffffffffffffffffffffffffffffffffffff167f8be0079c531659141344cd1fd0a4f28419497f9722a3daafe3b4186f6b6457e060405160405180910390a35050565b600081519050620001af816200028a565b92915050565b600081519050620001c681620002a4565b92915050565b60008060008060808587031215620001e357600080fd5b6000620001f3878288016200019e565b94505060206200020687828801620001b5565b93505060406200021987828801620001b5565b92505060606200022c87828801620001b5565b91505092959194509250565b6000620002458262000260565b9050919050565b6000620002598262000238565b9050919050565b600073ffffffffffffffffffffffffffffffffffffffff82169050919050565b6000819050919050565b62000295816200024c565b8114620002a157600080fd5b50565b620002af8162000280565b8114620002bb57600080fd5b50565b61287a80620002ce6000396000f3fe608060405234801561001057600080fd5b50600436106101375760003560e01c8063817b1cd2116100b8578063c428e1141161007c578063c428e1141461031c578063db74559b1461034c578063e0de0c681461037c578063f24ee7d3146103ac578063f2fde38b146103c8578063f5c762cb146103e457610137565b8063817b1cd2146102765780638da5cb5b14610294578063a694fc3a146102b2578063b2dd5c07146102ce578063b73c6ce9146102fe57610137565b8063484f4ea9116100ff578063484f4ea9146101e257806353aaa63b1461020057806370f0f38714610230578063715018a61461024e57806379e75dc31461025857610137565b806302fb0c5e1461013c5780630aca582e1461015a57806316934fc41461017857806318e1fbfc146101a85780632e17de78146101c6575b600080fd5b610144610402565b6040516101519190612384565b60405180910390f35b610162610415565b60405161016f919061257a565b60405180910390f35b610192600480360381019061018d9190611d3d565b61041b565b60405161019f919061257a565b60405180910390f35b6101b0610433565b6040516101bd919061257a565b60405180910390f35b6101e060048036038101906101db9190611d8f565b610439565b005b6101ea610826565b6040516101f7919061239f565b60405180910390f35b61021a60048036038101906102159190611d3d565b61084c565b604051610227919061257a565b60405180910390f35b610238610864565b604051610245919061257a565b60405180910390f35b61025661086a565b005b6102606108f2565b60405161026d919061257a565b60405180910390f35b61027e6108f8565b60405161028b919061257a565b60405180910390f35b61029c6108fe565b6040516102a99190612309565b60405180910390f35b6102cc60048036038101906102c79190611d8f565b610927565b005b6102e860048036038101906102e39190611d3d565b610e4a565b6040516102f59190612384565b60405180910390f35b610306610e6a565b6040516103139190612384565b60405180910390f35b61033660048036038101906103319190611d3d565b61128f565b604051610343919061257a565b60405180910390f35b61036660048036038101906103619190611d3d565b6112a7565b604051610373919061257a565b60405180910390f35b61039660048036038101906103919190611d3d565b6112bf565b6040516103a3919061257a565b60405180910390f35b6103c660048036038101906103c19190611de1565b6113b3565b005b6103e260048036038101906103dd9190611d3d565b611ab1565b005b6103ec611ba9565b6040516103f9919061257a565b60405180910390f35b600560009054906101000a900460ff1681565b60075481565b60096020528060005260406000206000915090505481565b60045481565b60011515600e60003373ffffffffffffffffffffffffffffffffffffffff1673ffffffffffffffffffffffffffffffffffffffff16815260200190815260200160002060009054906101000a900460ff161515146104cc576040517f08c379a00000000000000000000000000000000000000000000000000000000081526004016104c39061247a565b60405180910390fd5b600960003373ffffffffffffffffffffffffffffffffffffffff1673ffffffffffffffffffffffffffffffffffffffff16815260200190815260200160002054811115801561051b5750600081115b61055a576040517f08c379a00000000000000000000000000000000000000000000000000000000081526004016105519061243a565b60405180910390fd5b6105ac81600960003373ffffffffffffffffffffffffffffffffffffffff1673ffffffffffffffffffffffffffffffffffffffff16815260200190815260200160002054611baf90919063ffffffff16565b600960003373ffffffffffffffffffffffffffffffffffffffff1673ffffffffffffffffffffffffffffffffffffffff168152602001908152602001600020819055506000429050600061065d6201518061064f600d60003373ffffffffffffffffffffffffffffffffffffffff1673ffffffffffffffffffffffffffffffffffffffff1681526020019081526020016000205485611baf90919063ffffffff16565b611bc590919063ffffffff16565b90506106728183611baf90919063ffffffff16565b600d60003373ffffffffffffffffffffffffffffffffffffffff1673ffffffffffffffffffffffffffffffffffffffff168152602001908152602001600020819055506106ca83600254611baf90919063ffffffff16565b600281905550600160009054906101000a900473ffffffffffffffffffffffffffffffffffffffff1673ffffffffffffffffffffffffffffffffffffffff1663a9059cbb33856040518363ffffffff1660e01b815260040161072d92919061235b565b602060405180830381600087803b15801561074757600080fd5b505af115801561075b573d6000803e3d6000fd5b505050506040513d601f19601f8201168201806040525081019061077f9190611d66565b506000600960003373ffffffffffffffffffffffffffffffffffffffff1673ffffffffffffffffffffffffffffffffffffffff168152602001908152602001600020541415610821576000600e60003373ffffffffffffffffffffffffffffffffffffffff1673ffffffffffffffffffffffffffffffffffffffff16815260200190815260200160002060006101000a81548160ff0219169083151502179055505b505050565b600160009054906101000a900473ffffffffffffffffffffffffffffffffffffffff1681565b600a6020528060005260406000206000915090505481565b60065481565b610872611bdb565b73ffffffffffffffffffffffffffffffffffffffff166108906108fe565b73ffffffffffffffffffffffffffffffffffffffff16146108e6576040517f08c379a00000000000000000000000000000000000000000000000000000000081526004016108dd9061249a565b60405180910390fd5b6108f06000611be3565b565b60035481565b60025481565b60008060009054906101000a900473ffffffffffffffffffffffffffffffffffffffff16905090565b60011515600e60003373ffffffffffffffffffffffffffffffffffffffff1673ffffffffffffffffffffffffffffffffffffffff16815260200190815260200160002060009054906101000a900460ff161515146109ba576040517f08c379a00000000000000000000000000000000000000000000000000000000081526004016109b19061247a565b60405180910390fd5b60011515600560009054906101000a900460ff16151514610a10576040517f08c379a0000000000000000000000000000000000000000000000000000000008152600401610a07906123fa565b60405180910390fd5b600454811015610a55576040517f08c379a0000000000000000000000000000000000000000000000000000000008152600401610a4c9061255a565b60405180910390fd5b80600160009054906101000a900473ffffffffffffffffffffffffffffffffffffffff1673ffffffffffffffffffffffffffffffffffffffff166370a08231336040518263ffffffff1660e01b8152600401610ab19190612309565b60206040518083038186803b158015610ac957600080fd5b505afa158015610add573d6000803e3d6000fd5b505050506040513d601f19601f82011682018060405250810190610b019190611db8565b1015610b42576040517f08c379a0000000000000000000000000000000000000000000000000000000008152600401610b399061241a565b60405180910390fd5b600160009054906101000a900473ffffffffffffffffffffffffffffffffffffffff1673ffffffffffffffffffffffffffffffffffffffff166323b872dd3330846040518463ffffffff1660e01b8152600401610ba193929190612324565b602060405180830381600087803b158015610bbb57600080fd5b505af1158015610bcf573d6000803e3d6000fd5b505050506040513d601f19601f82011682018060405250810190610bf39190611d66565b610c32576040517f08c379a0000000000000000000000000000000000000000000000000000000008152600401610c299061253a565b60405180910390fd5b610c4781600254611ca790919063ffffffff16565b600281905550610ca7610c59336112bf565b600c60003373ffffffffffffffffffffffffffffffffffffffff1673ffffffffffffffffffffffffffffffffffffffff16815260200190815260200160002054611ca790919063ffffffff16565b600c60003373ffffffffffffffffffffffffffffffffffffffff1673ffffffffffffffffffffffffffffffffffffffff1681526020019081526020016000208190555060004290506000610d5862015180610d4a600d60003373ffffffffffffffffffffffffffffffffffffffff1673ffffffffffffffffffffffffffffffffffffffff1681526020019081526020016000205485611baf90919063ffffffff16565b611bc590919063ffffffff16565b9050610d6d8183611baf90919063ffffffff16565b600d60003373ffffffffffffffffffffffffffffffffffffffff1673ffffffffffffffffffffffffffffffffffffffff16815260200190815260200160002081905550610e0283600960003373ffffffffffffffffffffffffffffffffffffffff1673ffffffffffffffffffffffffffffffffffffffff16815260200190815260200160002054611ca790919063ffffffff16565b600960003373ffffffffffffffffffffffffffffffffffffffff1673ffffffffffffffffffffffffffffffffffffffff16815260200190815260200160002081905550505050565b600e6020528060005260406000206000915054906101000a900460ff1681565b600080610efe600c60003373ffffffffffffffffffffffffffffffffffffffff1673ffffffffffffffffffffffffffffffffffffffff16815260200190815260200160002054600a60003373ffffffffffffffffffffffffffffffffffffffff1673ffffffffffffffffffffffffffffffffffffffff16815260200190815260200160002054611ca790919063ffffffff16565b905060008111610f43576040517f08c379a0000000000000000000000000000000000000000000000000000000008152600401610f3a906124fa565b60405180910390fd5b80611003600254600160009054906101000a900473ffffffffffffffffffffffffffffffffffffffff1673ffffffffffffffffffffffffffffffffffffffff166370a08231306040518263ffffffff1660e01b8152600401610fa59190612309565b60206040518083038186803b158015610fbd57600080fd5b505afa158015610fd1573d6000803e3d6000fd5b505050506040513d601f19601f82011682018060405250810190610ff59190611db8565b611baf90919063ffffffff16565b1015611044576040517f08c379a000000000000000000000000000000000000000000000000000000000815260040161103b906124da565b60405180910390fd5b6000600c60003373ffffffffffffffffffffffffffffffffffffffff1673ffffffffffffffffffffffffffffffffffffffff168152602001908152602001600020819055506000600a60003373ffffffffffffffffffffffffffffffffffffffff1673ffffffffffffffffffffffffffffffffffffffff168152602001908152602001600020819055506000600b60003373ffffffffffffffffffffffffffffffffffffffff1673ffffffffffffffffffffffffffffffffffffffff168152602001908152602001600020819055506000429050600061118162015180611173600d60003373ffffffffffffffffffffffffffffffffffffffff1673ffffffffffffffffffffffffffffffffffffffff1681526020019081526020016000205485611baf90919063ffffffff16565b611bc590919063ffffffff16565b90506111968183611baf90919063ffffffff16565b600d60003373ffffffffffffffffffffffffffffffffffffffff1673ffffffffffffffffffffffffffffffffffffffff16815260200190815260200160002081905550600160009054906101000a900473ffffffffffffffffffffffffffffffffffffffff1673ffffffffffffffffffffffffffffffffffffffff1663a9059cbb33856040518363ffffffff1660e01b815260040161123692919061235b565b602060405180830381600087803b15801561125057600080fd5b505af1158015611264573d6000803e3d6000fd5b505050506040513d601f19601f820116820180604052508101906112889190611d66565b5050505090565b600c6020528060005260406000206000915090505481565b600b6020528060005260406000206000915090505481565b600080429050600061132e62015180611320600d60008873ffffffffffffffffffffffffffffffffffffffff1673ffffffffffffffffffffffffffffffffffffffff1681526020019081526020016000205485611baf90919063ffffffff16565b611cbd90919063ffffffff16565b90506113aa61271061139c8361138e600854600960008b73ffffffffffffffffffffffffffffffffffffffff1673ffffffffffffffffffffffffffffffffffffffff16815260200190815260200160002054611cd390919063ffffffff16565b611cd390919063ffffffff16565b611cbd90919063ffffffff16565b92505050919050565b60001515600e60003373ffffffffffffffffffffffffffffffffffffffff1673ffffffffffffffffffffffffffffffffffffffff16815260200190815260200160002060009054906101000a900460ff16151514611446576040517f08c379a000000000000000000000000000000000000000000000000000000000815260040161143d906124ba565b60405180910390fd5b60011515600560009054906101000a900460ff1615151461149c576040517f08c379a0000000000000000000000000000000000000000000000000000000008152600401611493906123fa565b60405180910390fd5b8073ffffffffffffffffffffffffffffffffffffffff163373ffffffffffffffffffffffffffffffffffffffff16141561150b576040517f08c379a00000000000000000000000000000000000000000000000000000000081526004016115029061245a565b60405180910390fd5b600e60008273ffffffffffffffffffffffffffffffffffffffff1673ffffffffffffffffffffffffffffffffffffffff16815260200190815260200160002060009054906101000a900460ff168061158f57508073ffffffffffffffffffffffffffffffffffffffff16600073ffffffffffffffffffffffffffffffffffffffff16145b6115ce576040517f08c379a00000000000000000000000000000000000000000000000000000000081526004016115c59061251a565b60405180910390fd5b81600160009054906101000a900473ffffffffffffffffffffffffffffffffffffffff1673ffffffffffffffffffffffffffffffffffffffff166370a08231336040518263ffffffff1660e01b815260040161162a9190612309565b60206040518083038186803b15801561164257600080fd5b505afa158015611656573d6000803e3d6000fd5b505050506040513d601f19601f8201168201806040525081019061167a9190611db8565b10156116bb576040517f08c379a00000000000000000000000000000000000000000000000000000000081526004016116b29061241a565b60405180910390fd5b600454821015611700576040517f08c379a00000000000000000000000000000000000000000000000000000000081526004016116f7906123da565b60405180910390fd5b600160009054906101000a900473ffffffffffffffffffffffffffffffffffffffff1673ffffffffffffffffffffffffffffffffffffffff166323b872dd3330856040518463ffffffff1660e01b815260040161175f93929190612324565b602060405180830381600087803b15801561177957600080fd5b505af115801561178d573d6000803e3d6000fd5b505050506040513d601f19601f820116820180604052508101906117b19190611d66565b6117f0576040517f08c379a00000000000000000000000000000000000000000000000000000000081526004016117e79061253a565b60405180910390fd5b600061181b6103e861180d85600654611cd390919063ffffffff16565b611cbd90919063ffffffff16565b9050600073ffffffffffffffffffffffffffffffffffffffff168273ffffffffffffffffffffffffffffffffffffffff161461193c57600b60008373ffffffffffffffffffffffffffffffffffffffff1673ffffffffffffffffffffffffffffffffffffffff16815260200190815260200160002060008154809291906118a190612727565b91905055506118f881600a60008573ffffffffffffffffffffffffffffffffffffffff1673ffffffffffffffffffffffffffffffffffffffff16815260200190815260200160002054611ca790919063ffffffff16565b600a60008473ffffffffffffffffffffffffffffffffffffffff1673ffffffffffffffffffffffffffffffffffffffff168152602001908152602001600020819055505b6001600e60003373ffffffffffffffffffffffffffffffffffffffff1673ffffffffffffffffffffffffffffffffffffffff16815260200190815260200160002060006101000a81548160ff02191690831515021790555042600d60003373ffffffffffffffffffffffffffffffffffffffff1673ffffffffffffffffffffffffffffffffffffffff168152602001908152602001600020819055506119ff816119f185600254611ca790919063ffffffff16565b611baf90919063ffffffff16565b600281905550611a6981611a5b85600960003373ffffffffffffffffffffffffffffffffffffffff1673ffffffffffffffffffffffffffffffffffffffff16815260200190815260200160002054611ca790919063ffffffff16565b611baf90919063ffffffff16565b600960003373ffffffffffffffffffffffffffffffffffffffff1673ffffffffffffffffffffffffffffffffffffffff16815260200190815260200160002081905550505050565b611ab9611bdb565b73ffffffffffffffffffffffffffffffffffffffff16611ad76108fe565b73ffffffffffffffffffffffffffffffffffffffff1614611b2d576040517f08c379a0000000000000000000000000000000000000000000000000000000008152600401611b249061249a565b60405180910390fd5b600073ffffffffffffffffffffffffffffffffffffffff168173ffffffffffffffffffffffffffffffffffffffff161415611b9d576040517f08c379a0000000000000000000000000000000000000000000000000000000008152600401611b94906123ba565b60405180910390fd5b611ba681611be3565b50565b60085481565b60008183611bbd9190612687565b905092915050565b60008183611bd39190612770565b905092915050565b600033905090565b60008060009054906101000a900473ffffffffffffffffffffffffffffffffffffffff169050816000806101000a81548173ffffffffffffffffffffffffffffffffffffffff021916908373ffffffffffffffffffffffffffffffffffffffff1602179055508173ffffffffffffffffffffffffffffffffffffffff168173ffffffffffffffffffffffffffffffffffffffff167f8be0079c531659141344cd1fd0a4f28419497f9722a3daafe3b4186f6b6457e060405160405180910390a35050565b60008183611cb591906125a6565b905092915050565b60008183611ccb91906125fc565b905092915050565b60008183611ce1919061262d565b905092915050565b600081359050611cf8816127ff565b92915050565b600081519050611d0d81612816565b92915050565b600081359050611d228161282d565b92915050565b600081519050611d378161282d565b92915050565b600060208284031215611d4f57600080fd5b6000611d5d84828501611ce9565b91505092915050565b600060208284031215611d7857600080fd5b6000611d8684828501611cfe565b91505092915050565b600060208284031215611da157600080fd5b6000611daf84828501611d13565b91505092915050565b600060208284031215611dca57600080fd5b6000611dd884828501611d28565b91505092915050565b60008060408385031215611df457600080fd5b6000611e0285828601611d13565b9250506020611e1385828601611ce9565b9150509250929050565b611e26816126bb565b82525050565b611e35816126cd565b82525050565b611e4481612703565b82525050565b6000611e57602683612595565b91507f4f776e61626c653a206e6577206f776e657220697320746865207a65726f206160008301527f64647265737300000000000000000000000000000000000000000000000000006020830152604082019050919050565b6000611ebd602683612595565b91507f4d7573742073656e64206174206c6561737420656e6f7567682042555344207460008301527f6f207061792e00000000000000000000000000000000000000000000000000006020830152604082019050919050565b6000611f23602383612595565b91507f536d61727420636f6e747261637420697320637572656e746c7920696e61637460008301527f69766500000000000000000000000000000000000000000000000000000000006020830152604082019050919050565b6000611f89602183612595565b91507f4d757374206861766520656e6f7567682062616c616e636520746f207374616b60008301527f65000000000000000000000000000000000000000000000000000000000000006020830152604082019050919050565b6000611fef601f83612595565b91507f496e73756666696369656e742062616c616e636520746f20756e7374616b65006000830152602082019050919050565b600061202f601183612595565b91507f43616e6e6f742072656665722073656c660000000000000000000000000000006000830152602082019050919050565b600061206f601e83612595565b91507f5374616b65686f6c646572206d757374206265207265676973746572656400006000830152602082019050919050565b60006120af602083612595565b91507f4f776e61626c653a2063616c6c6572206973206e6f7420746865206f776e65726000830152602082019050919050565b60006120ef602183612595565b91507f5374616b65686f6c64657220697320616c72656164792072656769737465726560008301527f64000000000000000000000000000000000000000000000000000000000000006020830152604082019050919050565b6000612155602183612595565b91507f496e73756666696369656e7420425553442062616c616e636520696e20706f6f60008301527f6c000000000000000000000000000000000000000000000000000000000000006020830152604082019050919050565b60006121bb601583612595565b91507f4e6f2072657761726420746f20776974686472617700000000000000000000006000830152602082019050919050565b60006121fb601b83612595565b91507f5265666572726572206d757374206265207265676973746572656400000000006000830152602082019050919050565b600061223b602b83612595565b91507f5374616b65206661696c65642064756520746f206661696c656420616d6f756e60008301527f74207472616e736665722e0000000000000000000000000000000000000000006020830152604082019050919050565b60006122a1602483612595565b91507f416d6f756e742069732062656c6f77206d696e696d756d207374616b6520766160008301527f6c75652e000000000000000000000000000000000000000000000000000000006020830152604082019050919050565b612303816126f9565b82525050565b600060208201905061231e6000830184611e1d565b92915050565b60006060820190506123396000830186611e1d565b6123466020830185611e1d565b61235360408301846122fa565b949350505050565b60006040820190506123706000830185611e1d565b61237d60208301846122fa565b9392505050565b60006020820190506123996000830184611e2c565b92915050565b60006020820190506123b46000830184611e3b565b92915050565b600060208201905081810360008301526123d381611e4a565b9050919050565b600060208201905081810360008301526123f381611eb0565b9050919050565b6000602082019050818103600083015261241381611f16565b9050919050565b6000602082019050818103600083015261243381611f7c565b9050919050565b6000602082019050818103600083015261245381611fe2565b9050919050565b6000602082019050818103600083015261247381612022565b9050919050565b6000602082019050818103600083015261249381612062565b9050919050565b600060208201905081810360008301526124b3816120a2565b9050919050565b600060208201905081810360008301526124d3816120e2565b9050919050565b600060208201905081810360008301526124f381612148565b9050919050565b60006020820190508181036000830152612513816121ae565b9050919050565b60006020820190508181036000830152612533816121ee565b9050919050565b600060208201905081810360008301526125538161222e565b9050919050565b6000602082019050818103600083015261257381612294565b9050919050565b600060208201905061258f60008301846122fa565b92915050565b600082825260208201905092915050565b60006125b1826126f9565b91506125bc836126f9565b9250827fffffffffffffffffffffffffffffffffffffffffffffffffffffffffffffffff038211156125f1576125f06127a1565b5b828201905092915050565b6000612607826126f9565b9150612612836126f9565b925082612622576126216127d0565b5b828204905092915050565b6000612638826126f9565b9150612643836126f9565b9250817fffffffffffffffffffffffffffffffffffffffffffffffffffffffffffffffff048311821515161561267c5761267b6127a1565b5b828202905092915050565b6000612692826126f9565b915061269d836126f9565b9250828210156126b0576126af6127a1565b5b828203905092915050565b60006126c6826126d9565b9050919050565b60008115159050919050565b600073ffffffffffffffffffffffffffffffffffffffff82169050919050565b6000819050919050565b600061270e82612715565b9050919050565b6000612720826126d9565b9050919050565b6000612732826126f9565b91507fffffffffffffffffffffffffffffffffffffffffffffffffffffffffffffffff821415612765576127646127a1565b5b600182019050919050565b600061277b826126f9565b9150612786836126f9565b925082612796576127956127d0565b5b828206905092915050565b7f4e487b7100000000000000000000000000000000000000000000000000000000600052601160045260246000fd5b7f4e487b7100000000000000000000000000000000000000000000000000000000600052601260045260246000fd5b612808816126bb565b811461281357600080fd5b50565b61281f816126cd565b811461282a57600080fd5b50565b612836816126f9565b811461284157600080fd5b5056fea26469706673582212201adc0b186e2134f2e45619c5fa9159fac98389bf2b8bacb21ecbac0480b8176264736f6c63430008000033",
  "linkReferences": {},
  "deployedLinkReferences": {}
}