{
  "_format": "hh-sol-artifact-1",
  "contractName": "Ido",
  "sourceName": "contracts/Ido.sol",
  "abi": [
    {
      "inputs": [
        {
          "internalType": "uint256",
          "name": "rate",
          "type": "uint256"
        },
        {
          "internalType": "address payable",
          "name": "wallet",
          "type": "address"
        },
        {
          "internalType": "contract IERC20",
          "name": "token",
          "type": "address"
        }
      ],
      "stateMutability": "nonpayable",
      "type": "constructor"
    },
    {
      "anonymous": false,
      "inputs": [
        {
          "indexed": true,
          "internalType": "address",
          "name": "user",
          "type": "address"
        },
        {
          "indexed": true,
          "internalType": "address",
          "name": "referrer",
          "type": "address"
        },
        {
          "indexed": false,
          "internalType": "uint256",
          "name": "commissionAmount",
          "type": "uint256"
        }
      ],
      "name": "ReferralCommissionPaid",
      "type": "event"
    },
    {
      "anonymous": false,
      "inputs": [
        {
          "indexed": true,
          "internalType": "address",
          "name": "user",
          "type": "address"
        },
        {
          "indexed": true,
          "internalType": "address",
          "name": "referrer",
          "type": "address"
        }
      ],
      "name": "ReferralRecorded",
      "type": "event"
    },
    {
      "inputs": [],
      "name": "EndTime",
      "outputs": [
        {
          "internalType": "uint256",
          "name": "",
          "type": "uint256"
        }
      ],
      "stateMutability": "view",
      "type": "function"
    },
    {
      "inputs": [],
      "name": "LDN",
      "outputs": [
        {
          "internalType": "contract IERC20",
          "name": "",
          "type": "address"
        }
      ],
      "stateMutability": "view",
      "type": "function"
    },
    {
      "inputs": [],
      "name": "MAXIMUM_REFERRAL_COMMISSION_RATE",
      "outputs": [
        {
          "internalType": "uint16",
          "name": "",
          "type": "uint16"
        }
      ],
      "stateMutability": "view",
      "type": "function"
    },
    {
      "inputs": [],
      "name": "buy",
      "outputs": [],
      "stateMutability": "payable",
      "type": "function"
    },
    {
      "inputs": [],
      "name": "claim",
      "outputs": [
        {
          "internalType": "uint256",
          "name": "",
          "type": "uint256"
        }
      ],
      "stateMutability": "nonpayable",
      "type": "function"
    },
    {
      "inputs": [],
      "name": "contributions",
      "outputs": [
        {
          "internalType": "uint256",
          "name": "weiContributions",
          "type": "uint256"
        }
      ],
      "stateMutability": "view",
      "type": "function"
    },
    {
      "inputs": [],
      "name": "endTime",
      "outputs": [
        {
          "internalType": "uint256",
          "name": "",
          "type": "uint256"
        }
      ],
      "stateMutability": "view",
      "type": "function"
    },
    {
      "inputs": [],
      "name": "hasEnded",
      "outputs": [
        {
          "internalType": "bool",
          "name": "icoEnded",
          "type": "bool"
        }
      ],
      "stateMutability": "view",
      "type": "function"
    },
    {
      "inputs": [],
      "name": "ownerBalance",
      "outputs": [
        {
          "internalType": "uint256",
          "name": "weiProfits",
          "type": "uint256"
        }
      ],
      "stateMutability": "view",
      "type": "function"
    },
    {
      "inputs": [],
      "name": "pantherReferral",
      "outputs": [
        {
          "internalType": "contract IPantherReferral",
          "name": "",
          "type": "address"
        }
      ],
      "stateMutability": "view",
      "type": "function"
    },
    {
      "inputs": [],
      "name": "rateOfTokensToGivePerEth",
      "outputs": [
        {
          "internalType": "uint256",
          "name": "",
          "type": "uint256"
        }
      ],
      "stateMutability": "view",
      "type": "function"
    },
    {
      "inputs": [],
      "name": "referralCommissionRate",
      "outputs": [
        {
          "internalType": "uint16",
          "name": "",
          "type": "uint16"
        }
      ],
      "stateMutability": "view",
      "type": "function"
    },
    {
      "inputs": [
        {
          "internalType": "contract IPantherReferral",
          "name": "_pantherReferral",
          "type": "address"
        }
      ],
      "name": "setPantherReferral",
      "outputs": [],
      "stateMutability": "nonpayable",
      "type": "function"
    },
    {
      "inputs": [
        {
          "internalType": "uint16",
          "name": "_referralCommissionRate",
          "type": "uint16"
        }
      ],
      "name": "setReferralCommissionRate",
      "outputs": [],
      "stateMutability": "nonpayable",
      "type": "function"
    },
    {
      "inputs": [],
      "name": "setTime",
      "outputs": [
        {
          "internalType": "uint256",
          "name": "",
          "type": "uint256"
        }
      ],
      "stateMutability": "nonpayable",
      "type": "function"
    },
    {
      "inputs": [],
      "name": "startTime",
      "outputs": [
        {
          "internalType": "uint256",
          "name": "",
          "type": "uint256"
        }
      ],
      "stateMutability": "view",
      "type": "function"
    },
    {
      "inputs": [],
      "name": "totalReferrers",
      "outputs": [
        {
          "internalType": "uint256",
          "name": "weiContributions",
          "type": "uint256"
        }
      ],
      "stateMutability": "view",
      "type": "function"
    },
    {
      "inputs": [],
      "name": "walletToStoreTheEthers",
      "outputs": [
        {
          "internalType": "address payable",
          "name": "",
          "type": "address"
        }
      ],
      "stateMutability": "view",
      "type": "function"
    }
  ],
  "bytecode": "0x60806040526064600760146101000a81548161ffff021916908361ffff1602179055503480156200002f57600080fd5b5060405162001e6c38038062001e6c8339818101604052810190620000559190620002cb565b600083116200009b576040517f08c379a0000000000000000000000000000000000000000000000000000000008152600401620000929062000477565b60405180910390fd5b600073ffffffffffffffffffffffffffffffffffffffff168273ffffffffffffffffffffffffffffffffffffffff1614156200010e576040517f08c379a0000000000000000000000000000000000000000000000000000000008152600401620001059062000433565b60405180910390fd5b600073ffffffffffffffffffffffffffffffffffffffff168173ffffffffffffffffffffffffffffffffffffffff16141562000181576040517f08c379a0000000000000000000000000000000000000000000000000000000008152600401620001789062000455565b60405180910390fd5b8260028190555081600360006101000a81548173ffffffffffffffffffffffffffffffffffffffff021916908373ffffffffffffffffffffffffffffffffffffffff16021790555080600460006101000a81548173ffffffffffffffffffffffffffffffffffffffff021916908373ffffffffffffffffffffffffffffffffffffffff1602179055506000600560003373ffffffffffffffffffffffffffffffffffffffff1673ffffffffffffffffffffffffffffffffffffffff168152602001908152602001600020819055506002426200025e9190620004aa565b600081905550621fa400600054620002779190620004aa565b600181905550505050620005ea565b60008151905062000297816200059c565b92915050565b600081519050620002ae81620005b6565b92915050565b600081519050620002c581620005d0565b92915050565b600080600060608486031215620002e157600080fd5b6000620002f186828701620002b4565b9350506020620003048682870162000286565b925050604062000317868287016200029d565b9150509250925092565b60006200033060248362000499565b91507f5072652d53616c653a2077616c6c657420697320746865207a65726f2061646460008301527f72657373000000000000000000000000000000000000000000000000000000006020830152604082019050919050565b60006200039860238362000499565b91507f5072652d53616c653a20746f6b656e20697320746865207a65726f206164647260008301527f65737300000000000000000000000000000000000000000000000000000000006020830152604082019050919050565b60006200040060138362000499565b91507f5072652d53616c653a20726174652069732030000000000000000000000000006000830152602082019050919050565b600060208201905081810360008301526200044e8162000321565b9050919050565b60006020820190508181036000830152620004708162000389565b9050919050565b600060208201905081810360008301526200049281620003f1565b9050919050565b600082825260208201905092915050565b6000620004b78262000563565b9150620004c48362000563565b9250827fffffffffffffffffffffffffffffffffffffffffffffffffffffffffffffffff03821115620004fc57620004fb6200056d565b5b828201905092915050565b6000620005148262000543565b9050919050565b6000620005288262000543565b9050919050565b60006200053c8262000507565b9050919050565b600073ffffffffffffffffffffffffffffffffffffffff82169050919050565b6000819050919050565b7f4e487b7100000000000000000000000000000000000000000000000000000000600052601160045260246000fd5b620005a7816200051b565b8114620005b357600080fd5b50565b620005c1816200052f565b8114620005cd57600080fd5b50565b620005db8162000563565b8114620005e757600080fd5b50565b61187280620005fa6000396000f3fe6080604052600436106101095760003560e01c806378e9792511610095578063ae499bdb11610064578063ae499bdb14610318578063bedcf00314610343578063d30ef61b1461036e578063d9276a4914610399578063ecb70fb7146103c457610109565b806378e979251461028d578063946897cf146102b8578063a6f2ae3a146102e3578063a8c65c1f146102ed57610109565b806348b22bfb116100dc57806348b22bfb146101ba5780634e71d92d146101e557806355dbc826146102105780635bc6c9771461023957806362d03cb71461026257610109565b8063029eabcb1461010e5780631f9cd415146101395780633197cbb614610164578063333609781461018f575b600080fd5b34801561011a57600080fd5b506101236103ef565b604051610130919061159c565b60405180910390f35b34801561014557600080fd5b5061014e610436565b60405161015b919061142c565b60405180910390f35b34801561017057600080fd5b5061017961045c565b604051610186919061159c565b60405180910390f35b34801561019b57600080fd5b506101a4610462565b6040516101b1919061159c565b60405180910390f35b3480156101c657600080fd5b506101cf61046c565b6040516101dc9190611581565b60405180910390f35b3480156101f157600080fd5b506101fa610472565b604051610207919061159c565b60405180910390f35b34801561021c57600080fd5b506102376004803603810190610232919061113e565b61048d565b005b34801561024557600080fd5b50610260600480360381019061025b9190611115565b61058a565b005b34801561026e57600080fd5b5061027761065e565b604051610284919061159c565b60405180910390f35b34801561029957600080fd5b506102a26106a5565b6040516102af919061159c565b60405180910390f35b3480156102c457600080fd5b506102cd6106ab565b6040516102da919061159c565b60405180910390f35b6102eb6106b1565b005b3480156102f957600080fd5b50610302610a38565b60405161030f919061148b565b60405180910390f35b34801561032457600080fd5b5061032d610a5e565b60405161033a91906114a6565b60405180910390f35b34801561034f57600080fd5b50610358610a84565b604051610365919061159c565b60405180910390f35b34801561037a57600080fd5b50610383610beb565b6040516103909190611581565b60405180910390f35b3480156103a557600080fd5b506103ae610bff565b6040516103bb919061159c565b60405180910390f35b3480156103d057600080fd5b506103d9610c26565b6040516103e69190611470565b60405180910390f35b6000600560003373ffffffffffffffffffffffffffffffffffffffff1673ffffffffffffffffffffffffffffffffffffffff16815260200190815260200160002054905090565b600360009054906101000a900473ffffffffffffffffffffffffffffffffffffffff1681565b60015481565b6000600154905090565b6103e881565b60008061047d61065e565b90506104893382610c33565b5090565b3373ffffffffffffffffffffffffffffffffffffffff16600360009054906101000a900473ffffffffffffffffffffffffffffffffffffffff1673ffffffffffffffffffffffffffffffffffffffff161461051d576040517f08c379a000000000000000000000000000000000000000000000000000000000815260040161051490611501565b60405180910390fd5b6103e861ffff168161ffff16111561056a576040517f08c379a0000000000000000000000000000000000000000000000000000000008152600401610561906114c1565b60405180910390fd5b80600760146101000a81548161ffff021916908361ffff16021790555050565b3373ffffffffffffffffffffffffffffffffffffffff16600360009054906101000a900473ffffffffffffffffffffffffffffffffffffffff1673ffffffffffffffffffffffffffffffffffffffff161461061a576040517f08c379a000000000000000000000000000000000000000000000000000000000815260040161061190611501565b60405180910390fd5b80600760006101000a81548173ffffffffffffffffffffffffffffffffffffffff021916908373ffffffffffffffffffffffffffffffffffffffff16021790555050565b6000600660003373ffffffffffffffffffffffffffffffffffffffff1673ffffffffffffffffffffffffffffffffffffffff16815260200190815260200160002054905090565b60005481565b60025481565b4260005411156106f6576040517f08c379a00000000000000000000000000000000000000000000000000000000081526004016106ed906114e1565b60405180910390fd5b6106fe610c26565b1561073e576040517f08c379a000000000000000000000000000000000000000000000000000000000815260040161073590611521565b60405180910390fd5b3373ffffffffffffffffffffffffffffffffffffffff16600360009054906101000a900473ffffffffffffffffffffffffffffffffffffffff1673ffffffffffffffffffffffffffffffffffffffff1614156107cf576040517f08c379a00000000000000000000000000000000000000000000000000000000081526004016107c690611501565b60405180910390fd5b6000670de0b6b3a7640000346107e5919061161e565b6002546107f2919061164f565b90506108096127108261102e90919063ffffffff16565b90506000341161084e576040517f08c379a000000000000000000000000000000000000000000000000000000000815260040161084590611561565b60405180910390fd5b3460056000600360009054906101000a900473ffffffffffffffffffffffffffffffffffffffff1673ffffffffffffffffffffffffffffffffffffffff1673ffffffffffffffffffffffffffffffffffffffff16815260200190815260200160002060008282546108bf91906115c8565b9250508190555034600560003373ffffffffffffffffffffffffffffffffffffffff1673ffffffffffffffffffffffffffffffffffffffff168152602001908152602001600020600082825461091591906115c8565b92505081905550600360009054906101000a900473ffffffffffffffffffffffffffffffffffffffff1673ffffffffffffffffffffffffffffffffffffffff166108fc349081150290604051600060405180830381858888f19350505050158015610984573d6000803e3d6000fd5b50600460009054906101000a900473ffffffffffffffffffffffffffffffffffffffff1673ffffffffffffffffffffffffffffffffffffffff1663a9059cbb33836040518363ffffffff1660e01b81526004016109e2929190611447565b602060405180830381600087803b1580156109fc57600080fd5b505af1158015610a10573d6000803e3d6000fd5b505050506040513d601f19601f82011682018060405250810190610a3491906110ec565b5050565b600460009054906101000a900473ffffffffffffffffffffffffffffffffffffffff1681565b600760009054906101000a900473ffffffffffffffffffffffffffffffffffffffff1681565b60003373ffffffffffffffffffffffffffffffffffffffff16600360009054906101000a900473ffffffffffffffffffffffffffffffffffffffff1673ffffffffffffffffffffffffffffffffffffffff1614610b16576040517f08c379a0000000000000000000000000000000000000000000000000000000008152600401610b0d90611501565b60405180910390fd5b3373ffffffffffffffffffffffffffffffffffffffff16600360009054906101000a900473ffffffffffffffffffffffffffffffffffffffff1673ffffffffffffffffffffffffffffffffffffffff1614610ba6576040517f08c379a0000000000000000000000000000000000000000000000000000000008152600401610b9d90611541565b60405180910390fd5b600560003373ffffffffffffffffffffffffffffffffffffffff1673ffffffffffffffffffffffffffffffffffffffff16815260200190815260200160002054905090565b600760149054906101000a900461ffff1681565b60006213c68060016000828254610c1691906115c8565b9250508190556001819055905090565b6000426001541115905090565b600073ffffffffffffffffffffffffffffffffffffffff16600760009054906101000a900473ffffffffffffffffffffffffffffffffffffffff1673ffffffffffffffffffffffffffffffffffffffff1614158015610ca657506000600760149054906101000a900461ffff1661ffff16115b1561102a576000600760009054906101000a900473ffffffffffffffffffffffffffffffffffffffff1673ffffffffffffffffffffffffffffffffffffffff16634a9fefc7846040518263ffffffff1660e01b8152600401610d089190611411565b60206040518083038186803b158015610d2057600080fd5b505afa158015610d34573d6000803e3d6000fd5b505050506040513d601f19601f82011682018060405250810190610d5891906110c3565b90506000610d83600760149054906101000a900461ffff1661ffff168461104490919063ffffffff16565b90506000600460009054906101000a900473ffffffffffffffffffffffffffffffffffffffff1673ffffffffffffffffffffffffffffffffffffffff166370a08231306040518263ffffffff1660e01b8152600401610de29190611411565b60206040518083038186803b158015610dfa57600080fd5b505afa158015610e0e573d6000803e3d6000fd5b505050506040513d601f19601f82011682018060405250810190610e329190611167565b9050600073ffffffffffffffffffffffffffffffffffffffff168373ffffffffffffffffffffffffffffffffffffffff1614158015610e715750600082115b8015610e7c57508181115b1561102657600460009054906101000a900473ffffffffffffffffffffffffffffffffffffffff1673ffffffffffffffffffffffffffffffffffffffff1663a9059cbb84846040518363ffffffff1660e01b8152600401610ede929190611447565b602060405180830381600087803b158015610ef857600080fd5b505af1158015610f0c573d6000803e3d6000fd5b505050506040513d601f19601f82011682018060405250810190610f3091906110ec565b50600760009054906101000a900473ffffffffffffffffffffffffffffffffffffffff1673ffffffffffffffffffffffffffffffffffffffff1663dc1694b884846040518363ffffffff1660e01b8152600401610f8e929190611447565b600060405180830381600087803b158015610fa857600080fd5b505af1158015610fbc573d6000803e3d6000fd5b505050508273ffffffffffffffffffffffffffffffffffffffff168573ffffffffffffffffffffffffffffffffffffffff167f86ddab457291316e0f5496737e5ca67c4037234c32c3be04c48ae96186893a7b8460405161101d919061159c565b60405180910390a35b5050505b5050565b6000818361103c919061161e565b905092915050565b60008183611052919061164f565b905092915050565b600081519050611069816117c9565b92915050565b60008151905061107e816117e0565b92915050565b600081359050611093816117f7565b92915050565b6000813590506110a88161180e565b92915050565b6000815190506110bd81611825565b92915050565b6000602082840312156110d557600080fd5b60006110e38482850161105a565b91505092915050565b6000602082840312156110fe57600080fd5b600061110c8482850161106f565b91505092915050565b60006020828403121561112757600080fd5b600061113584828501611084565b91505092915050565b60006020828403121561115057600080fd5b600061115e84828501611099565b91505092915050565b60006020828403121561117957600080fd5b6000611187848285016110ae565b91505092915050565b611199816116bb565b82525050565b6111a8816116a9565b82525050565b6111b7816116cd565b82525050565b6111c681611723565b82525050565b6111d581611747565b82525050565b60006111e86048836115b7565b91507f736574526566657272616c436f6d6d697373696f6e526174653a20696e76616c60008301527f696420726566657272616c20636f6d6d697373696f6e2072617465206261736960208301527f7320706f696e74730000000000000000000000000000000000000000000000006040830152606082019050919050565b60006112746018836115b7565b91507f49434f204c61756e636820686173206e6f7420626567756e00000000000000006000830152602082019050919050565b60006112b46024836115b7565b91507f436f6e7472616374204f776e65722063616e6e6f742070617274616b6520696e60008301527f2049434f000000000000000000000000000000000000000000000000000000006020830152604082019050919050565b600061131a6014836115b7565b91507f43726f776473616c652068617320656e646564210000000000000000000000006000830152602082019050919050565b600061135a6021836115b7565b91507f4f6e6c7920436f6e7472616374204f776e657220697320617574686f72697a6560008301527f64000000000000000000000000000000000000000000000000000000000000006020830152604082019050919050565b60006113c06016836115b7565b91507f43616e6e6f7420627579205a45524f20746f6b656e73000000000000000000006000830152602082019050919050565b6113fc816116eb565b82525050565b61140b81611719565b82525050565b6000602082019050611426600083018461119f565b92915050565b60006020820190506114416000830184611190565b92915050565b600060408201905061145c600083018561119f565b6114696020830184611402565b9392505050565b600060208201905061148560008301846111ae565b92915050565b60006020820190506114a060008301846111bd565b92915050565b60006020820190506114bb60008301846111cc565b92915050565b600060208201905081810360008301526114da816111db565b9050919050565b600060208201905081810360008301526114fa81611267565b9050919050565b6000602082019050818103600083015261151a816112a7565b9050919050565b6000602082019050818103600083015261153a8161130d565b9050919050565b6000602082019050818103600083015261155a8161134d565b9050919050565b6000602082019050818103600083015261157a816113b3565b9050919050565b600060208201905061159660008301846113f3565b92915050565b60006020820190506115b16000830184611402565b92915050565b600082825260208201905092915050565b60006115d382611719565b91506115de83611719565b9250827fffffffffffffffffffffffffffffffffffffffffffffffffffffffffffffffff038211156116135761161261176b565b5b828201905092915050565b600061162982611719565b915061163483611719565b9250826116445761164361179a565b5b828204905092915050565b600061165a82611719565b915061166583611719565b9250817fffffffffffffffffffffffffffffffffffffffffffffffffffffffffffffffff048311821515161561169e5761169d61176b565b5b828202905092915050565b60006116b4826116f9565b9050919050565b60006116c6826116f9565b9050919050565b60008115159050919050565b60006116e4826116a9565b9050919050565b600061ffff82169050919050565b600073ffffffffffffffffffffffffffffffffffffffff82169050919050565b6000819050919050565b600061172e82611735565b9050919050565b6000611740826116f9565b9050919050565b600061175282611759565b9050919050565b6000611764826116f9565b9050919050565b7f4e487b7100000000000000000000000000000000000000000000000000000000600052601160045260246000fd5b7f4e487b7100000000000000000000000000000000000000000000000000000000600052601260045260246000fd5b6117d2816116a9565b81146117dd57600080fd5b50565b6117e9816116cd565b81146117f457600080fd5b50565b611800816116d9565b811461180b57600080fd5b50565b611817816116eb565b811461182257600080fd5b50565b61182e81611719565b811461183957600080fd5b5056fea264697066735822122031c6c25f8b706e493f9424f5b74488dc59342e38d3ab10ca6e2c3a3a509eeec664736f6c63430008000033",
  "linkReferences": {},
  "deployedLinkReferences": {}
}