{
	"_format": "hh-sol-artifact-1",
	"contractName": "Presale",
	"sourceName": "contracts/Presale.sol",
	"abi": [
		{
			"inputs": [
				{
					"internalType": "uint256",
					"name": "rate",
					"type": "uint256"
				},
				{
					"internalType": "address payable",
					"name": "wallet",
					"type": "address"
				},
				{
					"internalType": "contract IERC20",
					"name": "token",
					"type": "address"
				},
				{
					"internalType": "uint256",
					"name": "_buyBonusRate",
					"type": "uint256"
				}
			],
			"stateMutability": "nonpayable",
			"type": "constructor"
		},
		{
			"anonymous": false,
			"inputs": [
				{
					"indexed": true,
					"internalType": "address",
					"name": "user",
					"type": "address"
				},
				{
					"indexed": true,
					"internalType": "address",
					"name": "referrer",
					"type": "address"
				},
				{
					"indexed": false,
					"internalType": "uint256",
					"name": "commissionAmount",
					"type": "uint256"
				}
			],
			"name": "ReferralCommissionPaid",
			"type": "event"
		},
		{
			"anonymous": false,
			"inputs": [
				{
					"indexed": true,
					"internalType": "address",
					"name": "user",
					"type": "address"
				},
				{
					"indexed": true,
					"internalType": "address",
					"name": "referrer",
					"type": "address"
				}
			],
			"name": "ReferralRecorded",
			"type": "event"
		},
		{
			"inputs": [],
			"name": "LDN",
			"outputs": [
				{
					"internalType": "contract IERC20",
					"name": "",
					"type": "address"
				}
			],
			"stateMutability": "view",
			"type": "function"
		},
		{
			"inputs": [],
			"name": "active",
			"outputs": [
				{
					"internalType": "bool",
					"name": "",
					"type": "bool"
				}
			],
			"stateMutability": "view",
			"type": "function"
		},
		{
			"inputs": [
				{
					"internalType": "address",
					"name": "_referrer",
					"type": "address"
				}
			],
			"name": "buy",
			"outputs": [],
			"stateMutability": "payable",
			"type": "function"
		},
		{
			"inputs": [],
			"name": "buyBonusRate",
			"outputs": [
				{
					"internalType": "uint256",
					"name": "",
					"type": "uint256"
				}
			],
			"stateMutability": "view",
			"type": "function"
		},
		{
			"inputs": [],
			"name": "changeActiveStatus",
			"outputs": [],
			"stateMutability": "nonpayable",
			"type": "function"
		},
		{
			"inputs": [],
			"name": "contributions",
			"outputs": [
				{
					"internalType": "uint256",
					"name": "weiContributions",
					"type": "uint256"
				}
			],
			"stateMutability": "view",
			"type": "function"
		},
		{
			"inputs": [],
			"name": "owner",
			"outputs": [
				{
					"internalType": "address",
					"name": "",
					"type": "address"
				}
			],
			"stateMutability": "view",
			"type": "function"
		},
		{
			"inputs": [],
			"name": "rateOfTokensToGivePerEth",
			"outputs": [
				{
					"internalType": "uint256",
					"name": "",
					"type": "uint256"
				}
			],
			"stateMutability": "view",
			"type": "function"
		},
		{
			"inputs": [],
			"name": "referralCommissionRate",
			"outputs": [
				{
					"internalType": "uint16",
					"name": "",
					"type": "uint16"
				}
			],
			"stateMutability": "view",
			"type": "function"
		},
		{
			"inputs": [
				{
					"internalType": "address",
					"name": "",
					"type": "address"
				}
			],
			"name": "referralCount",
			"outputs": [
				{
					"internalType": "uint256",
					"name": "",
					"type": "uint256"
				}
			],
			"stateMutability": "view",
			"type": "function"
		},
		{
			"inputs": [
				{
					"internalType": "address",
					"name": "",
					"type": "address"
				}
			],
			"name": "referralRewards",
			"outputs": [
				{
					"internalType": "uint256",
					"name": "",
					"type": "uint256"
				}
			],
			"stateMutability": "view",
			"type": "function"
		},
		{
			"inputs": [],
			"name": "totalStaked",
			"outputs": [
				{
					"internalType": "uint256",
					"name": "",
					"type": "uint256"
				}
			],
			"stateMutability": "view",
			"type": "function"
		},
		{
			"inputs": [],
			"name": "walletToStoreTheEthers",
			"outputs": [
				{
					"internalType": "address payable",
					"name": "",
					"type": "address"
				}
			],
			"stateMutability": "view",
			"type": "function"
		},
		{
			"inputs": [],
			"name": "withdrawEarnings",
			"outputs": [
				{
					"internalType": "bool",
					"name": "",
					"type": "bool"
				}
			],
			"stateMutability": "nonpayable",
			"type": "function"
		}
	],
	"bytecode": "0x60806040526001600860006101000a81548160ff0219169083151502179055506064600c60006101000a81548161ffff021916908361ffff1602179055503480156200004a57600080fd5b50604051620018e1380380620018e1833981810160405281019062000070919062000309565b600160008190555060008411620000be576040517f08c379a0000000000000000000000000000000000000000000000000000000008152600401620000b590620004cb565b60405180910390fd5b600073ffffffffffffffffffffffffffffffffffffffff168373ffffffffffffffffffffffffffffffffffffffff16141562000131576040517f08c379a0000000000000000000000000000000000000000000000000000000008152600401620001289062000487565b60405180910390fd5b600073ffffffffffffffffffffffffffffffffffffffff168273ffffffffffffffffffffffffffffffffffffffff161415620001a4576040517f08c379a00000000000000000000000000000000000000000000000000000000081526004016200019b90620004a9565b60405180910390fd5b33600160006101000a81548173ffffffffffffffffffffffffffffffffffffffff021916908373ffffffffffffffffffffffffffffffffffffffff160217905550806007819055508360028190555082600560006101000a81548173ffffffffffffffffffffffffffffffffffffffff021916908373ffffffffffffffffffffffffffffffffffffffff16021790555081600660006101000a81548173ffffffffffffffffffffffffffffffffffffffff021916908373ffffffffffffffffffffffffffffffffffffffff1602179055506000600b60003373ffffffffffffffffffffffffffffffffffffffff1673ffffffffffffffffffffffffffffffffffffffff1681526020019081526020016000208190555050505050620005b2565b600081519050620002d58162000564565b92915050565b600081519050620002ec816200057e565b92915050565b600081519050620003038162000598565b92915050565b600080600080608085870312156200032057600080fd5b60006200033087828801620002f2565b94505060206200034387828801620002c4565b93505060406200035687828801620002db565b92505060606200036987828801620002f2565b91505092959194509250565b600062000384602483620004ed565b91507f5072652d53616c653a2077616c6c657420697320746865207a65726f2061646460008301527f72657373000000000000000000000000000000000000000000000000000000006020830152604082019050919050565b6000620003ec602383620004ed565b91507f5072652d53616c653a20746f6b656e20697320746865207a65726f206164647260008301527f65737300000000000000000000000000000000000000000000000000000000006020830152604082019050919050565b600062000454601383620004ed565b91507f5072652d53616c653a20726174652069732030000000000000000000000000006000830152602082019050919050565b60006020820190508181036000830152620004a28162000375565b9050919050565b60006020820190508181036000830152620004c481620003dd565b9050919050565b60006020820190508181036000830152620004e68162000445565b9050919050565b600082825260208201905092915050565b60006200050b826200053a565b9050919050565b60006200051f826200053a565b9050919050565b60006200053382620004fe565b9050919050565b600073ffffffffffffffffffffffffffffffffffffffff82169050919050565b6000819050919050565b6200056f8162000512565b81146200057b57600080fd5b50565b620005898162000526565b81146200059557600080fd5b50565b620005a3816200055a565b8114620005af57600080fd5b50565b61131f80620005c26000396000f3fe6080604052600436106100dd5760003560e01c8063946897cf1161007f578063d30ef61b11610059578063d30ef61b1461028e578063db74559b146102b9578063f088d547146102f6578063ff8245b914610312576100dd565b8063946897cf1461020d578063a8c65c1f14610238578063b73c6ce914610263576100dd565b80631f9cd415116100bb5780631f9cd4151461014f57806353aaa63b1461017a578063817b1cd2146101b75780638da5cb5b146101e2576100dd565b8063029eabcb146100e257806302fb0c5e1461010d57806313c3338414610138575b600080fd5b3480156100ee57600080fd5b506100f761033d565b6040516101049190611064565b60405180910390f35b34801561011957600080fd5b50610122610384565b60405161012f9190610f53565b60405180910390f35b34801561014457600080fd5b5061014d610397565b005b34801561015b57600080fd5b5061016461047a565b6040516101719190610f0f565b60405180910390f35b34801561018657600080fd5b506101a1600480360381019061019c9190610c53565b6104a0565b6040516101ae9190611064565b60405180910390f35b3480156101c357600080fd5b506101cc6104b8565b6040516101d99190611064565b60405180910390f35b3480156101ee57600080fd5b506101f76104be565b6040516102049190610ef4565b60405180910390f35b34801561021957600080fd5b506102226104e4565b60405161022f9190611064565b60405180910390f35b34801561024457600080fd5b5061024d6104ea565b60405161025a9190610f6e565b60405180910390f35b34801561026f57600080fd5b50610278610510565b6040516102859190610f53565b60405180910390f35b34801561029a57600080fd5b506102a361081a565b6040516102b09190611049565b60405180910390f35b3480156102c557600080fd5b506102e060048036038101906102db9190610c53565b61082e565b6040516102ed9190611064565b60405180910390f35b610310600480360381019061030b9190610c53565b610846565b005b34801561031e57600080fd5b50610327610bcc565b6040516103349190611064565b60405180910390f35b6000600b60003373ffffffffffffffffffffffffffffffffffffffff1673ffffffffffffffffffffffffffffffffffffffff16815260200190815260200160002054905090565b600860009054906101000a900460ff1681565b600160009054906101000a900473ffffffffffffffffffffffffffffffffffffffff1673ffffffffffffffffffffffffffffffffffffffff163373ffffffffffffffffffffffffffffffffffffffff1614610427576040517f08c379a000000000000000000000000000000000000000000000000000000000815260040161041e90610fa9565b60405180910390fd5b600860009054906101000a900460ff161561045c576000600860006101000a81548160ff021916908315150217905550610478565b6001600860006101000a81548160ff0219169083151502179055505b565b600560009054906101000a900473ffffffffffffffffffffffffffffffffffffffff1681565b60096020528060005260406000206000915090505481565b60035481565b600160009054906101000a900473ffffffffffffffffffffffffffffffffffffffff1681565b60025481565b600660009054906101000a900473ffffffffffffffffffffffffffffffffffffffff1681565b600060026000541415610558576040517f08c379a000000000000000000000000000000000000000000000000000000000815260040161054f90611029565b60405180910390fd5b60026000819055506000600960003373ffffffffffffffffffffffffffffffffffffffff1673ffffffffffffffffffffffffffffffffffffffff168152602001908152602001600020549050600081116105e7576040517f08c379a00000000000000000000000000000000000000000000000000000000081526004016105de90610fe9565b60405180910390fd5b80600660009054906101000a900473ffffffffffffffffffffffffffffffffffffffff1673ffffffffffffffffffffffffffffffffffffffff166370a08231306040518263ffffffff1660e01b81526004016106439190610ef4565b60206040518083038186803b15801561065b57600080fd5b505afa15801561066f573d6000803e3d6000fd5b505050506040513d601f19601f820116820180604052508101906106939190610ca5565b10156106d4576040517f08c379a00000000000000000000000000000000000000000000000000000000081526004016106cb90610f89565b60405180910390fd5b6000600960003373ffffffffffffffffffffffffffffffffffffffff1673ffffffffffffffffffffffffffffffffffffffff168152602001908152602001600020819055506000600a60003373ffffffffffffffffffffffffffffffffffffffff1673ffffffffffffffffffffffffffffffffffffffff16815260200190815260200160002081905550600660009054906101000a900473ffffffffffffffffffffffffffffffffffffffff1673ffffffffffffffffffffffffffffffffffffffff1663a9059cbb33836040518363ffffffff1660e01b81526004016107bb929190610f2a565b602060405180830381600087803b1580156107d557600080fd5b505af11580156107e9573d6000803e3d6000fd5b505050506040513d601f19601f8201168201806040525081019061080d9190610c7c565b5050600160008190555090565b600c60009054906101000a900461ffff1681565b600a6020528060005260406000206000915090505481565b60011515600860009054906101000a900460ff1615151461089c576040517f08c379a000000000000000000000000000000000000000000000000000000000815260040161089390610fc9565b60405180910390fd5b600034116108df576040517f08c379a00000000000000000000000000000000000000000000000000000000081526004016108d690611009565b60405180910390fd5b346002546108ed9190611117565b60048190555060006109206103e8610912600454600754610bd290919063ffffffff16565b610be890919063ffffffff16565b9050600073ffffffffffffffffffffffffffffffffffffffff168273ffffffffffffffffffffffffffffffffffffffff161415801561098b57508173ffffffffffffffffffffffffffffffffffffffff163373ffffffffffffffffffffffffffffffffffffffff1614155b15610a3c57600a60008373ffffffffffffffffffffffffffffffffffffffff1673ffffffffffffffffffffffffffffffffffffffff16815260200190815260200160002060008154809291906109e0906111fd565b919050555080600960008473ffffffffffffffffffffffffffffffffffffffff1673ffffffffffffffffffffffffffffffffffffffff1681526020019081526020016000206000828254610a349190611090565b925050819055505b34600b60003373ffffffffffffffffffffffffffffffffffffffff1673ffffffffffffffffffffffffffffffffffffffff1681526020019081526020016000206000828254610a8b9190611090565b92505081905550610aa734600354610bfe90919063ffffffff16565b600381905550600560009054906101000a900473ffffffffffffffffffffffffffffffffffffffff1673ffffffffffffffffffffffffffffffffffffffff166108fc349081150290604051600060405180830381858888f19350505050158015610b15573d6000803e3d6000fd5b50600660009054906101000a900473ffffffffffffffffffffffffffffffffffffffff1673ffffffffffffffffffffffffffffffffffffffff1663a9059cbb336004546040518363ffffffff1660e01b8152600401610b75929190610f2a565b602060405180830381600087803b158015610b8f57600080fd5b505af1158015610ba3573d6000803e3d6000fd5b505050506040513d601f19601f82011682018060405250810190610bc79190610c7c565b505050565b60075481565b60008183610be09190611117565b905092915050565b60008183610bf691906110e6565b905092915050565b60008183610c0c9190611090565b905092915050565b600081359050610c23816112a4565b92915050565b600081519050610c38816112bb565b92915050565b600081519050610c4d816112d2565b92915050565b600060208284031215610c6557600080fd5b6000610c7384828501610c14565b91505092915050565b600060208284031215610c8e57600080fd5b6000610c9c84828501610c29565b91505092915050565b600060208284031215610cb757600080fd5b6000610cc584828501610c3e565b91505092915050565b610cd781611183565b82525050565b610ce681611171565b82525050565b610cf581611195565b82525050565b610d04816111d9565b82525050565b6000610d1760208361107f565b91507f496e73756666696369656e74204c4e442062616c616e636520696e20706f6f6c6000830152602082019050919050565b6000610d57602a8361107f565b91507f4f6e6c7920436f6e7472616374204f776e65722063616e2063616c6c2074686960008301527f732066756e6374696f6e000000000000000000000000000000000000000000006020830152604082019050919050565b6000610dbd60248361107f565b91507f536d61727420436f6e74726163742069732063757272656e746c7920696e616360008301527f74697665000000000000000000000000000000000000000000000000000000006020830152604082019050919050565b6000610e2360158361107f565b91507f4e6f2072657761726420746f20776974686472617700000000000000000000006000830152602082019050919050565b6000610e6360168361107f565b91507f43616e6e6f7420627579205a45524f20746f6b656e73000000000000000000006000830152602082019050919050565b6000610ea3601f8361107f565b91507f5265656e7472616e637947756172643a207265656e7472616e742063616c6c006000830152602082019050919050565b610edf816111a1565b82525050565b610eee816111cf565b82525050565b6000602082019050610f096000830184610cdd565b92915050565b6000602082019050610f246000830184610cce565b92915050565b6000604082019050610f3f6000830185610cdd565b610f4c6020830184610ee5565b9392505050565b6000602082019050610f686000830184610cec565b92915050565b6000602082019050610f836000830184610cfb565b92915050565b60006020820190508181036000830152610fa281610d0a565b9050919050565b60006020820190508181036000830152610fc281610d4a565b9050919050565b60006020820190508181036000830152610fe281610db0565b9050919050565b6000602082019050818103600083015261100281610e16565b9050919050565b6000602082019050818103600083015261102281610e56565b9050919050565b6000602082019050818103600083015261104281610e96565b9050919050565b600060208201905061105e6000830184610ed6565b92915050565b60006020820190506110796000830184610ee5565b92915050565b600082825260208201905092915050565b600061109b826111cf565b91506110a6836111cf565b9250827fffffffffffffffffffffffffffffffffffffffffffffffffffffffffffffffff038211156110db576110da611246565b5b828201905092915050565b60006110f1826111cf565b91506110fc836111cf565b92508261110c5761110b611275565b5b828204905092915050565b6000611122826111cf565b915061112d836111cf565b9250817fffffffffffffffffffffffffffffffffffffffffffffffffffffffffffffffff048311821515161561116657611165611246565b5b828202905092915050565b600061117c826111af565b9050919050565b600061118e826111af565b9050919050565b60008115159050919050565b600061ffff82169050919050565b600073ffffffffffffffffffffffffffffffffffffffff82169050919050565b6000819050919050565b60006111e4826111eb565b9050919050565b60006111f6826111af565b9050919050565b6000611208826111cf565b91507fffffffffffffffffffffffffffffffffffffffffffffffffffffffffffffffff82141561123b5761123a611246565b5b600182019050919050565b7f4e487b7100000000000000000000000000000000000000000000000000000000600052601160045260246000fd5b7f4e487b7100000000000000000000000000000000000000000000000000000000600052601260045260246000fd5b6112ad81611171565b81146112b857600080fd5b50565b6112c481611195565b81146112cf57600080fd5b50565b6112db816111cf565b81146112e657600080fd5b5056fea264697066735822122024d197f95f1101537fbd3d03072a2d5a7ac96ecceabdd40682ed0da0c45684eb64736f6c63430008000033",
	"linkReferences": {},
	"deployedLinkReferences": {}
}